:100000000C94D5010C9465090C941C020C941C02F0
:100010000C941C020C941C020C941C020C941C02E8
:100020000C941C020C941C020C948C210C945E22E7
:100030000C945D170C941C020C941C020C941C0272
:100040000C941C020C941C020C941C020C941C02B8
:100050000C941C020C94C5170C941C020C941C02EA
:100060000C941C020C941C020C941C020C941C0298
:100070000C941C020C941C020C941C020C941C0288
:100080000C941C020C941C020C941C020C941C0278
:100090000C941C020C941C020C941C020C941C0268
:1000A0000C941C020C941C020C941C026603680342
:1000B00073036A036C036E037003720375037703A3
:1000C000790384037B037D037F038103830386031A
:1000D000370D370D690D690DA70DC70D5C0F5C0F4E
:1000E000090E5C0FB60EB60E280F310F5C0F550FC0
:1000F000C30EC30EC30EC30EC30EC30EC30EC30E78
:10010000C30EC30EC30EC30EC30EC30EC30EC30E67
:10011000D40EE20EE90EF00EFA0EEB0FEB0FFD0F10
:10012000FD0FF40FFD0FFD0FFD0FEB0FEB0FF90FA0
:10013000FD0FFD0FF90FCB22F222E423F222E4237C
:100140003E236123E423B723C6234B004A00530018
:10015000610060005F004E004D004C005E005D00DD
:100160005C000253520001535B005A0059004F00DB
:1001700051005000630062006200000000000000B7
:10018000000000000000000000000000000000006F
:10019000000000000000000000000000000000005F
:1001A000000000000000000000005400560067003E
:1001B000010001000100550057000100010001008D
:1001C0000100010001000100010001000100010027
:1001D000010001000100010001000000000000001A
:1001E000000000000000000000000000000000000F
:1001F00000000000000000000000000000000000FF
:10020000000000000000000000002B003500290065
:1002100026022502240228002C002A0023022202A2
:10022000210201000100010020021F021E02010044
:100230000100010035022702270200000000000033
:1002400000000000000000000000000000000000AE
:10025000000000000000000000000000000000009E
:100260000000000000000000000004033000000057
:1002700012034C006500760069006E0073006F0089
:100280006E0000000E034B0065006500620069000F
:100290006F0000000403090409023B00020100A0F2
:1002A000FA09040000010301010009211101000104
:1002B0002240000705810308000A09040100010328
:1002C00000000009211101000122850007058203B9
:1002D00020000A120110010000000810CB46110096
:1002E000020102030105010902A10185020901A120
:1002F00000050919012905150025019505750181DC
:100300000295017503810105010930093115812527
:100310007F95027508810609381581257F9501753D
:10032000088106050C0A38021581257F950175089C
:100330008106C0C005010980A101850316010026C0
:1003400003001A81002A8300751095018100C00501
:100350000C0901A1018504160100269C021A010066
:100360002A9C02751095018100C005010906A101B2
:10037000050719E029E71500250195087501810297
:100380009501750881010508190129059505750173
:1003900091029501750391010507190029FF1500C8
:1003A00026FF00950675088100C011241FBECFEFFF
:1003B000DAE0DEBFCDBF04B603FE27C080910102A4
:1003C00090910202A0910302B09104028730904BF9
:1003D000A740B04BD1F41092010210920202109289
:1003E00003021092040214BE84B7877F84BF0FB645
:1003F000F894A895809160008861809360001092C5
:1004000060000FBEE0E0F8E3099511E0A0E0B1E084
:10041000ECEAF9E402C005900D92A433B107D9F7D4
:1004200022E0A4E3B1E001C01D92A130B207E1F7E0
:100430000E94B01E0C94D4240C9400000C94E70687
:1004400081E0089581E008950C9422020C94E9065D
:10045000CF92DF92EF92FF92883030F4811105C085
:10046000909180009F7704C087E090918000906811
:1004700090938000282F30E0AFEFBFEF0E947824E8
:1004800027E030E040E050E00E9450242C3784E127
:1004900038074105510530F4C90169E070E00E9458
:1004A000282429C0DA01C9018A50974DAF4FBF4FA8
:1004B0006627782F892F9A2F25EF38E241E050E008
:1004C0000E94502469017A01CA01B9010E941824CE
:1004D0009B01AC01C701B6010E941824BB27A92FBC
:1004E000982F872F009721E0A207B10511F0BC01DA
:1004F00002C06FEF7FEF7093890060938800FF90D8
:10050000EF90DF90CF900895259A2D9882E8809300
:10051000800089E1809381008FEF9FEF90938700A7
:10052000809386000C94441C0E944216811102C0E4
:100530000E94C5160E9484020C941E0208950C9419
:100540009E020C949F0208950E94DB0F0E94A3025A
:100550002FEF84E39CE0215080409040E1F700C001
:10056000000087E797E790930108809300080C94B8
:10057000EB17FF920F931F93CF93DF938C01FC0136
:10058000C081D18180916401811113C0828188234F
:1005900049F0CE010E941215F82E682FCE010E945C
:1005A000B51404C0CE010E94E514F82EBE018F2DB3
:1005B00004C0CE010E941215BE010E943A04EC0153
:1005C000B8010E942402882309F449C1C73DFCE513
:1005D000DF0709F4ABC0B0F4C531ECE5DE0768F421
:1005E000C230FCE5DF0708F04FC0C1158CE5D80725
:1005F00001F1C130DC4529F125C1C631DC4509F4E2
:10060000FAC020C1CC3D8CE5D80771F150F4C83D4B
:10061000FCE5DF0709F4ADC0C93DDC4509F4D0C0F5
:1006200011C1CD3DECE5DE0731F1CE3DDC45A1F059
:1006300009C1F8018281882309F411C10E94A40232
:100640000EC1F8018281882309F409C18091D0018B
:1006500081608093D00103C1F8018281882309F46D
:10066000FEC00E94C516FBC0F8018281882309F4F0
:10067000F6C080E006C0F8018281882309F4EFC04B
:1006800082E00E944F1FEBC0F8018281882309F4A9
:10069000DEC00E944216811102C00E94C5160E944F
:1006A000551690E09093F2018093F101FE01E35022
:1006B000FC45E231F10530F4EA5AFF4F8091F10137
:1006C0000C9472248091F101816027C0826025C062
:1006D000846023C0806121C080621FC080641DC00F
:1006E00080681BC08460886018C08E7F16C08D7FB4
:1006F00014C08B7F12C08F7E10C08F7D0EC08F7B89
:100700000CC08F770AC08B7F877F07C087FB2227AB
:1007100020F991E0922790FB87F98093F101809175
:10072000F1010E9459160E94DB0F99C0F8018281E5
:10073000882351F0109239010E948F17909336014F
:100740008093350182E022C08091390181110FC070
:1007500080913501909136010E949B17883C91054C
:1007600030F486E20E94520B86E20E948B0C82E0FB
:1007700024C0F8018281882361F010923A010E941E
:100780008F17909338018093370180E20E94F30C19
:1007900066C080913A0181110FC08091370190911C
:1007A00038010E949B17883C910530F487E20E9433
:1007B000520B87E20E948B0C80E20E94FA0C4FC021
:1007C000F80182818111D9CF80913A018111F4CF52
:1007D00080913701909138010E949B17883C9105C8
:1007E00058F780E20E94FA0C88E20E94520B88E2DD
:1007F0000E948B0C34C00E949215282FF801828130
:100800004091090150910A01882379F02A7A91E0F8
:1008100009F490E090933401911102C069E201C0A3
:1008200065E3CA010E94F9160AC080913401811162
:1008300002C069E201C065E3CA010E94FB160E9482
:10084000DE150DC081E08093390180933A01C80123
:10085000DF91CF911F910F91FF900C94200280E0C7
:10086000DF91CF911F910F91FF90089580E090E06C
:100870000895089596E0799FF001112490E3899FEF
:10088000E00DF11D1124E60FF11DEE0FFF1FE65BD9
:10089000FE4F859194910895880F991FFC01E659A8
:1008A000FD4F859194910895CF93DF930E943A0470
:1008B0000E944706EC01811521E5920708F042C02D
:1008C000811560E5960708F031C1883E910500F575
:1008D000803E910508F0D7C1883A910570F4853AB9
:1008E000910508F0A6C08130910509F4CCC108F447
:1008F0007DC1049708F0C7C179C18F3B910508F409
:10090000A3C0803C910508F471C1805C9109FDC0D1
:10091000C11580E3D80780F4C11590E2D90708F02B
:10092000F2C0C03FD10508F461C1CF3FD10511F03D
:1009300008F0A9C1D065A7C1C11520E4D20708F00D
:10094000F2C0E7C0811569E5960760F5C11588E535
:10095000D80708F037C1C11594E5D90778F4C11557
:1009600023E5D20708F013C1C11562E5D60708F0E8
:10097000F8C0DC2FCC27C16FD06A85C1C11585E5D1
:10098000D80708F41AC1C11596E5D90708F02EC199
:100990008C2F0E94C4068F71C82FD0E0DC2FCC278B
:1009A000D06271C18D3B2CE5920709F416C1F0F4B9
:1009B000CB3B8CE5D80709F40AC108F00BC1C1157F
:1009C0002AE5D20708F012C18C2F8F700E94C4064E
:1009D00094E0D695C7959A95E1F7CF70D0E0DC2FDB
:1009E000CC27D06A8F70806EC82B4DC1803C9C454F
:1009F00009F4F9C0C13C8CE5D80760F4CE3B9CE516
:100A0000D90709F4EDC0CF3BDC4509F0EFC0C0E0E9
:100A1000D2ED39C1CE0190568115904208F0E6C062
:100A20008D2F8F710E94C406DD27D0628F71D82B65
:100A30002AC1853A910509F4DCC0863A910509F08E
:100A4000DBC0C2E8D0E41FC1883A910509F4D7C0E1
:100A5000893A910509F4D6C08A3A910509F4D5C0BE
:100A60008B3A910509F4D4C08C3A910509F4D3C0AE
:100A70008B3B910509F4D2C08C3B910509F4D1C0A0
:100A80008D3A910509F4D0C0803B910509F4CFC09F
:100A90008E3A910509F4CEC08F3A910509F4CDC084
:100AA000813B910509F4CCC0823B910509F4CBC090
:100AB000833B910509F4CAC0843B910509F4C9C080
:100AC000853B910509F4C8C0863B910509F4C7C070
:100AD000873B910509F4C6C0883B910509F4C5C060
:100AE000893B910509F4C4C08D3B910509F4C3C04D
:100AF0008E3B910509F4C2C08A3B910509F4C1C03F
:100B0000C0E0D4E4C0C0CE019F700E944C04EC0150
:100B1000BAC0CE019927D3FF03C0EC01D86CB3C093
:100B2000EC01D06CB0C0DF70D06AADC0837021E042
:100B300030E002C0220F331F8A95E2F73C68CE01F5
:100B400074E0969587957A95E1F78370382BCF708E
:100B5000C695C69580E2C89FE0011124C22BD32B15
:100B600092C04C2F4695469590E2499FA0011124D2
:100B7000C370DD2721E030E0C90102C0880F991F52
:100B8000CA95E2F7EC01C42BD52BDC687CC04C2F56
:100B90004695469580E2489FA0011124C370DD2749
:100BA00021E030E0C90102C0880F991FCA95E2F721
:100BB000EC01C42BD52BDA6866C0DC2FCC27C46FC0
:100BC000D06A61C0DC2FCC27C06FD06A5CC0C0E0A7
:100BD000D4ED59C0C0E0D5ED56C0C0E0D1ED53C052
:100BE000C0E0D0ED50C0C0E0D3ED4DC0C0E0D0E0DB
:100BF0004AC0C1E8D0E447C0C3E8D0E444C0C2EE74
:100C0000D4E441C0C9EED4E43EC0CAEED4E43BC053
:100C1000C5EBD4E438C0C6EBD4E435C0C3EBD4E4B0
:100C200032C0C4EBD4E42FC0C7EBD4E42CC0CCEC6E
:100C3000D4E429C0CDECD4E426C0C3E8D5E423C075
:100C4000CAE8D5E420C0C2E9D5E41DC0C4E9D5E4B2
:100C50001AC0C1E2D6E417C0C3E2D6E414C0C4E2AD
:100C6000D6E411C0C5E2D6E40EC0C6E2D6E40BC09D
:100C7000C7E2D6E408C0CFE6D4E405C0C0E7D4E4B8
:100C800002C0CAE2D6E4CE01DF91CF910895823846
:100C9000910549F1B0F48133910509F458C048F445
:100CA0008932910509F44EC08A32910509F454C085
:100CB00008958533910509F440C08933910599F071
:100CC0000895833E910529F138F4803E910591F015
:100CD000823E9105A1F00895863E9105F9F0873E88
:100CE000910531F108952091F10120FD3AC021FDD7
:100CF00038C008958091F10180FD35C032C08091E7
:100D0000F10182FF32C08091F10184FD30C083EE99
:100D100039C08091F10182FD28C0F5CF8091F101A9
:100D200083FF27C08091F10184FD21C087EE2AC096
:100D30008091F10183FD1DC0F5CF8091F10185FD0A
:100D40001AC01BC08091F10185FD17C014C08091AD
:100D5000F10186FD14C015C08091F10186FD11C01E
:100D60000EC080EE0FC089E30DC082EE0BC080E0A4
:100D700009C086EE07C089E205C085E303C08AE2A8
:100D800001C081E390E008959091F10192FF0DC0C0
:100D9000282F2871283019F4877F846006C0282FF7
:100DA0002471243011F48B7F886093FF0DC0282FAD
:100DB0002871283119F4877E846106C0282F247198
:100DC000243111F48B7E886194FD877E0895089507
:100DD00008950C94E8060895E82FF0E0E05CFE4FDB
:100DE0008081089508958091D00183608860809308
:100DF000D0018091000180910001811102C094E036
:100E000001C090E09093EA0184E0891B8093E9019E
:100E1000A2E2B1E041E050E024E02A0F8D91E82FFA
:100E2000E295EF70F0E031A18F70BA0102C0660F59
:100E3000771F8A95E2F7CB01962F9095932391A384
:100E400092A1892B82A32A13E9CFACE1B1E041E062
:100E500050E026E02A0F8D91E82FE295EF70F0E048
:100E600031A18F70BA0102C0660F771F8A95E2F731
:100E7000CB01962F9095932391A392A1892B82A3C6
:100E80002A13E9CFE0E4F1E088E08E0F11928E138F
:100E9000FDCF84E00E940C080C9494026F927F9224
:100EA0009F92AF92BF92CF92DF92EF92FF920F93F9
:100EB0001F93CF93DF9322E2622E21E0722EACE3E8
:100EC000B1E020E001E010E034E0B32EBA0E7D0185
:100ED000AC901C92E30189913E01E82FE295EF70FE
:100EE000F0E031A18F70A80102C0440F551F8A9510
:100EF000E2F7CA01342B31A342A1382F30954323A6
:100F000042A350EA5A95F1F79CE1C92E91E0D92EFF
:100F100040E050E0E60199906E01692D62956F7096
:100F200070E0EB0168A170E0D92DDF7002C075950B
:100F30006795DA95E2F760FD07C0B801042E01C09D
:100F4000660F0A94EAF702C060E070E07C91672BBC
:100F50006C934F5F5F4F46305105E1F691A1392305
:100F600031A392A1892B82A3119681E0F701908190
:100F7000A91201C080E0282BBA12A9CF6091EA0122
:100F800070E0605C7E4F44E08CE391E00E940D08CD
:100F900081E0DF91CF911F910F91FF90EF90DF9053
:100FA000CF90BF90AF909F907F906F900895CF9318
:100FB0000E944E07C82F0E944308882301F1209108
:100FC000E901822F90E0805C9E4F0E947908811198
:100FD00011C090913B019F5F90933B01963060F070
:100FE000E091E901F0E0E05CFE4F10821182128294
:100FF000138202C010923B010E9426020AC0209177
:10100000EA01822F90E0805C9E4F0E949D080E9422
:10101000EB068C2FCF9108950895FF920F931F93A5
:10102000CF93DF938C01F62ED72FC42F222349F0C4
:1010300081E080934A010E948F1790934901809329
:10104000480180914A018823C1F080914801909124
:1010500049010E949B17069780F0EF2DFD2FD801C4
:101060004C2F50E0CD01801B910B841795071CF489
:101070008D918193F7CF10924A01DF91CF911F910B
:101080000F91FF90089580914B01811112C08091C2
:10109000D80080618093D8008AE18A95F1F700C07A
:1010A0008091D90080FD02C082E001C081E0809380
:1010B0004B0181E090914B01913009F080E008955F
:1010C0000C9443080E946008809300010E9443082A
:1010D00081110C946D080C94730861E070E081E05C
:1010E00091E00C940A0961E070E081E091E00C94D9
:1010F0001309CF93DF93D82FC92F0E94B609892BEC
:10110000C1F4ED2FFC2F80E090E0DC01A25BBE4F2C
:101110002C912193019684309105B9F78091F301C8
:1011200080FF02C0869501C080E080934D0181E080
:1011300001C080E0DF91CF91089520E030E0FC0114
:101140004191CF01F901E25BFE4F40832F5F3F4F9A
:1011500024303105A1F780914D010C9428028EE1D5
:10116000489B02C08150E1F7489BFECF08955898F4
:1011700080E28A95F1F7589A0895FC013AE03A9591
:10118000F1F798E020E080E031E040E14A95F1F7A6
:10119000880F489B02C08160232700C0000040E107
:1011A0004A95F1F7915089F790E19A95F1F799B145
:1011B00000C0000030E13A95F1F79170922720814C
:1011C000920F90830895FF920F931F93CF93DF9315
:1011D00000D0CDB7DEB71982F82E8C01802F8F1981
:1011E000861760F46A830E94AF08CE0101960E94C0
:1011F000BD08F80181938F016A81F0CF81E0998168
:10120000911180E00F900F90DF91CF911F910F917E
:10121000FF9008959093540180935301609352017D
:10122000509A589A08959093540180935301609373
:1012300052015098589AE89AE9E6F0E080818C7F54
:1012400080830895615091E001C0990F6A95EAF793
:1012500020E031E0992361F0492F482319F0589A92
:10126000232701C0589840E24A95F1F79695F2CFAE
:10127000222311F0589A01C0589880E28A95F1F71C
:1012800058980895EF92FF920F931F93CF93DF9397
:101290001F92CDB7DEB7162F082F7C018E2D801B35
:1012A000811758F4F70181917F0189830E94B70863
:1012B00068E089810E942209F1CF0F90DF91CF91E0
:1012C0001F910F91FF90EF9008951F920F920FB60C
:1012D0000F9211242F933F934F935F936F937F93BC
:1012E0008F939F93AF93BF93CF93DF93EF93FF932E
:1012F0005898509AC0915301D09154016D81662342
:1013000021F08E819F810E9442090E94B70880E1EE
:101310008A95F1F758985098589A80E18A95F1F794
:101320006A81662351F08B819C810E94E308E881E9
:10133000F981811104C082E003C0E881F98188E06D
:1013400080830E94AF08FF91EF91DF91CF91BF9111
:10135000AF919F918F917F916F915F914F913F914D
:101360002F910F900FBE0F901F901895CF93DF9382
:10137000C0915301D0915401F894509A589885E047
:101380008A95F1F700005098589A80E28A95F1F713
:10139000489B0AC0509A589AE881F98181E080837D
:1013A000789481E090E02CC06D81662381F08E817D
:1013B0009F810E94E30881110AC0509A589AE881DF
:1013C000F98182E08083789482E090E019C00E94E5
:1013D000AF0880E28A95F1F75898509A80E18A9593
:1013E000F1F76A81662321F08B819C810E9442097A
:1013F0000E94B708E881F9811082789480E090E03B
:10140000DF91CF91089590935A01809359010895E7
:10141000E0915901F0915A01309721F00190F0814B
:10142000E02D099480E00895E0915901F0915A016E
:10143000309721F00280F381E02D09940895E09126
:101440005901F0915A01309739F022E0DC012C93D8
:101450000480F581E02D0994089520915701309181
:1014600058018217930771F09093580180935701A8
:10147000E0915901F0915A01309721F00680F781EF
:10148000E02D09940895209155013091560182175D
:10149000930771F09093560180935501E0915901A3
:1014A000F0915A01309721F00084F185E02D0994E4
:1014B000089585B7806885BF85B7806885BF089522
:1014C00008950C94600A08950C94630A0E94590AC6
:1014D0000E9462080C94610A0E9486170E94F3061B
:1014E0000E94FC170E94441C0C94640ACF92DF9265
:1014F000EF92FF920F931F93CF93DF93CDB7DEB799
:101500002B970FB6F894DEBF0FBECDBF0E94D70752
:101510000E944308811111C08FEF89838A831B8247
:101520000E948F178160782F9D838C8349815A8117
:101530006B818D810E941E0B56C08CE5C82E81E008
:10154000D82E00E010E0E02E802F0E94EC06F6017D
:1015500041916F01F42EF82631F40F5F1F4F0830D0
:10156000110589F7D9CF9091D00191FF04C08B87E5
:101570000E94F2068B8520E030E04F2D50E0922F44
:10158000BA01022E02C0759567950A94E2F760FFD2
:1015900024C02E83EF8221E030E0690102C0CC0C30
:1015A000DD1C9A95E2F790E08C219D21892B09F4AE
:1015B00020E028870E948F178160782F9A8789877B
:1015C0004E815F8168858A850E941E0BF801E45A6E
:1015D000FE4F8081C826C08206C02F5F3F4F263055
:1015E000310569F6BACF0E948F1910915B010E94F4
:1015F000080A1817A1F00E94080A80935B012B9635
:101600000FB6F894DEBF0FBECDBFDF91CF911F9113
:101610000F91FF90EF90DF90CF900C94A1022B964A
:101620000FB6F894DEBF0FBECDBFDF91CF911F91F3
:101630000F91FF90EF90DF90CF900895CF93DF93BD
:10164000CDB7DEB72B970FB6F894DEBF0FBECDBF78
:101650004F83588769877A878B87DE01119686E0EA
:10166000FD0111928A95E9F785E0FE013796019018
:101670000D928A95E1F749815A816B817C818D8138
:101680009E810E9485122B960FB6F894DEBF0FBE86
:10169000CDBFDF91CF910895FC01808191810E949F
:1016A00053150895CF93DF931F92CDB7DEB78823EC
:1016B00009F42DC1682F8238C1F40E94080A81FD07
:1016C00026C169E38091090190910A010E94F916EF
:1016D0000E94DE152FEF81EE94E021508040904073
:1016E000E1F700C0000069E319C0833811F50E94DA
:1016F000080A80FD0CC163E58091090190910A01FF
:101700000E94F9160E94DE152FEF81EE94E0215021
:1017100080409040E1F700C0000063E5809109013E
:1017200090910A010E94FB160F90DF91CF910C94CB
:10173000DE158438C1F40E94080A82FDE8C067E41F
:101740008091090190910A010E94F9160E94DE150C
:101750002FEF81EE94E0215080409040E1F700C0EF
:10176000000067E4DBCF8CEF860F813A70F4862FA0
:1017700069830E94B31B69818111C9C080910901ED
:1017800090910A010E94F916CFCF80E2860F88302F
:1017900048F4677081E001C0880F6A95EAF70E94FB
:1017A0009515C2CF8BE5860F833088F4653A29F012
:1017B000663A31F083E890E005C081E890E002C02D
:1017C00082E890E00F90DF91CF910C942D0A88E58C
:1017D000860F873108F091C0683A09F445C0693A2C
:1017E00009F445C06A3A09F445C06B3A09F445C0AA
:1017F0006C3A09F445C06B3B09F445C06C3B09F4F5
:1018000045C06D3A09F445C0603B09F445C06E3AE5
:1018100009F445C06F3A09F445C0613B09F445C07D
:10182000623B09F445C0633B09F445C0643B09F4DD
:1018300045C0653B09F445C0663B09F445C0673BBC
:1018400009F445C0683B09F445C0693B09F445C04B
:101850006D3B09F445C06E3B09F445C06A3B09F491
:1018600045C080E090E044C082EE90E041C089EE47
:1018700090E03EC08AEE90E03BC085EB90E038C03F
:1018800086EB90E035C083EB90E032C084EB90E0D3
:101890002FC087EB90E02CC08CEC90E029C08DEC41
:1018A00090E026C083E891E023C08AE891E020C060
:1018B00082E991E01DC084E991E01AC081E292E0E2
:1018C00017C083E292E014C084E292E011C085E286
:1018D00092E00EC086E292E00BC087E292E008C080
:1018E0008FE690E005C080E790E002C08AE292E0D7
:1018F0000F90DF91CF910C94430A603F40F0862F08
:101900000E9497180F90DF91CF910C9484190F903B
:10191000DF91CF910895882309F464C0823879F467
:101920000E94080A81FF5EC069E3809109019091DD
:101930000A010E94F9160E94DE1569E310C083387F
:10194000B1F40E94080A80FF4DC063E5809109014F
:1019500090910A010E94F9160E94DE1563E58091BC
:10196000090190910A010E94FB160C94DE1584383F
:1019700079F40E94080A82FF35C067E4809109016A
:1019800090910A010E94F9160E94DE1567E4E7CFE4
:101990009CEF980F913A10F4682FE1CF90E2980FE6
:1019A000983050F4877091E001C0990F8A95EAF75A
:1019B000892F0E949B15D9CF9BE5980F933020F477
:1019C00080E090E00C942D0A98E5980F973120F470
:1019D00080E090E00C94430A803F20F00E94FF18C2
:1019E0000C9484190895882321F00E9495150C9475
:1019F000DE150895882321F00E949B150C94DE15B6
:101A000008954F925F926F927F92BF92CF92DF9232
:101A1000EF92FF920F931F93CF93DF937C01D62F0A
:101A2000C72FFC01058102950F70128111110E94D0
:101A3000B2150E948B15882379F0112369F080E29A
:101A40008D0F883048F082E00E9429160E948B1585
:101A500091E0B82EB92601C0B12CCC2EC2948FE0F3
:101A6000C822D12CF601E859FF4F0C9472248C2F18
:101A7000807FCF70882311F0C295C07F112399F029
:101A8000CC2309F4D0C180E28D0F883010F0D11141
:101A900004C08C2F0E94951503C08C2F0E94A515A1
:101AA0000E94DE15C0C18D2F0E948B0CCC2309F43F
:101AB00003C280E28D0F883010F0D11104C08C2F4A
:101AC0000E949B1503C08C2F0E94AB150E94DE154F
:101AD000F3C18C2F807FCF70803211F0C295C07F10
:101AE000DD2319F0D130C9F022C0112371F0002399
:101AF00041F0013031F40E94C5158C2B0E94CB15AA
:101B0000DBC10E94C5158C2B46C1002319F00130A2
:101B100009F4D2C10E94D41518C0112321F0063057
:101B200008F0CAC10EC0053008F0C6C10EC01123AE
:101B300051F0002331F0F701858180FF74C18F706F
:101B400085838C2F28C101117FC18C2F2AC18C2F36
:101B500086958695837090E0009719F0019761F063
:101B6000ABC1112321F08D2F9C2F937002C080E018
:101B700090E00E942D0AB0C1112321F08D2F9C2FDF
:101B8000937002C080E090E00E94430AA5C1112337
:101B9000F9F0D53F51F0D63F71F0D43FA9F48091D0
:101BA000EB019091EC0181600BC08091EB01909171
:101BB000EC01826005C08091EB019091EC018460A2
:101BC0009093EC018093EB018D2F0E9497181EC01B
:101BD000D53F51F0D63F71F0D43FA9F48091EB018D
:101BE0009091EC018E7F0BC08091EB019091EC0104
:101BF0008D7F05C08091EB019091EC018B7F9093DC
:101C0000EC018093EB018D2F0E94FF180E94841934
:101C100063C18C2F837009F050C0111159C18D2FF1
:101C2000829586958770880F880F9D2F9F70492E0B
:101C3000512C612C712C082E04C0440C551C661CC0
:101C4000771C0A94D2F7D4FF14C00FE010E020E014
:101C500030E0B901A80104C0440F551F661F771F6B
:101C60008A95D2F7CB01BA016095709580959095D1
:101C700003C060E070E0CB01C695C695C370D0E0AC
:101C8000C230D10561F0C330D10581F064297529D6
:101C900086299729219771F00E94CA1319C16429D6
:101CA0007529862997290E94DC1312C10E94CA1344
:101CB000C301B2010E94B8130BC1112319F08C2F7C
:101CC000817001C08695882309F402C18D2F829509
:101CD00086958770880F880F9D2F9F70492E512CF5
:101CE000612C712C082E04C0440C551C661C771CFA
:101CF0000A94D2F7D4FF14C00FE010E020E030E0E7
:101D0000B901A80104C0440F551F661F771F8A95AB
:101D1000D2F7CB01BA01609570958095909503C07C
:101D200060E070E0CB01C695C695C3704C2F50E0C3
:101D30004230510569F04330510589F06429752915
:101D4000862997294130510571F00E949014C0C036
:101D500064297529862997290E94A214B9C00E9476
:101D60009014C301B2010E947E14B2C08D2F90E086
:101D7000FC01E05EF109E531F10508F050C0E858DA
:101D8000FF4F0C947224DF708C2F8F71112331F070
:101D90000E9417148D2F0E94F30C8EC00E943814DD
:101DA0008D2F0E94FA0C88C0112341F0053008F0F5
:101DB00083C08C2F8F710E945D147EC0063008F0A6
:101DC0007BC0F7CF112339F08C2F8F710E9417142D
:101DD00073C01123C9F38C2F8F710E9438146CC00B
:101DE000112329F08C2F8F710E94021465C00E946C
:101DF000FD1362C0112349F0CF718C2F0E9417147C
:101E000063E08C2F0E94141657C081E00E942916AF
:101E1000023008F451C082E00E9429164DC01123FF
:101E200031F0002389F28D2F0E94520B45C0002310
:101E300091F2D93349F45FEF67EE73E0515060409F
:101E40007040E1F700C000008D2F0E948B0C34C061
:101E50004C2F4F706D2FC7010E9436040E9429132A
:101E60003BC0111139C0CF70D0E0C230D10599F01C
:101E70003CF4209769F02197F9F40E947E1C2CC055
:101E8000C430D10571F054F02597B1F480E00AC058
:101E90000E94611C21C00E94BD1C1EC00E94C41C67
:101EA0001BC087E00E94E71C17C04C2F4F706D2F9E
:101EB000C7010E94390410C088E0C816D10441F05F
:101EC0005CF0EAE0CE1AD108F2E0CF16D10420F49B
:101ED0000E94080A0E94A102BB20F1F00E9487150F
:101EE00080FD1AC0F70112820E9481150E9417140A
:101EF000C7010E949A0F0E948115DF91CF911F9117
:101F00000F91FF90EF90DF90CF90BF907F906F90F8
:101F10005F904F900C943814DF91CF911F910F91E7
:101F2000FF90EF90DF90CF90BF907F906F905F9089
:101F30004F9008950F931F93CF93DF93EC01888107
:101F400099812B813C81232BB9F09F3F11F48F3F66
:101F500099F0CE010E94B902882371F068817981DD
:101F60008A810E945E158C010E94B4140E94B513F0
:101F7000B801CE010E94010DDF91CF911F910F9109
:101F800008950E94B2150E94C2150E94DE150E949B
:101F90001D1A0E94841980E090E00E942D0A80E0C2
:101FA00090E00C94430A8091090190910A010E94EB
:101FB000FD160C94C10F0E94A2150C94D30FE92FAB
:101FC000E295EF70F0E03297EE30F105B0F4E357B0
:101FD000FF4F0C947224803F91F018F4803E68F417
:101FE0000EC0843F51F40BC0803E48F0813F29F47D
:101FF00006C093FB882780F9089580E0089581E06A
:1020000008950E9453150E94DF0F0895CF93DF9328
:1020100000D000D01F92CDB7DEB70F900F900F9079
:102020000F900F90DF91CF910895CF93DF9300D061
:1020300000D000D0CDB7DEB726960FB6F894DEBF3D
:102040000FBECDBFDF91CF9108951F93CF93DF9344
:10205000C091650116E080916601C81799F0D0E043
:102060001C9FF0011D9FF00D1124E959FE4F408186
:10207000518162817381848195810E94151021961E
:10208000C770E9CFDF91CF911F91089540919701DB
:10209000509198016091990170919A0180919B01F2
:1020A00090919C010C94151080919C0182958F70E9
:1020B00009F054C080919901882309F44FC08091A0
:1020C0006501A0916601609197017091980140911E
:1020D0009A0150919B01B6E08A1709F43FC090E045
:1020E00041155105C1F17F3F11F46F3FA1F1B89F38
:1020F000F001B99FF00D1124E959FE4F21817213AF
:102100002AC02081621327C02281211124C023818B
:1021100034812417350710F421503109241B350B65
:10212000283C3105C0F420919C012F702061209340
:102130009C0126E0289FF001299FF00D1124E4590D
:10214000FE4F80818F708061808387E991E00E94DB
:102150009A0F0C94251001968770BECF0895CF92E8
:10216000DF92EF92FF920F931F93CF93DF93CDB740
:10217000DEB762970FB6F894DEBF0FBECDBF8C01FD
:1021800085E0F801DE011D9601900D928A95E1F738
:10219000D8014C9111965C91119712966C911297FF
:1021A0001396CD90DC90149730919701709198011F
:1021B00080919A0190919B01009709F46BC17F3F38
:1021C00019F43F3F09F466C1E0909901EE2009F44B
:1021D000C0C020919C01C816D90628F0F601E81B62
:1021E000F90BCF0104C0809590958C0D9D1DFF24A7
:1021F000F394883C910578F0F12C207F09F0C6C05B
:102200007C2DD98AC88A89890E94061087E991E0C5
:102210000E949A0FB1C0822F807F09F046C07513CB
:1022200014C0341312C0611110C02F7020612093AC
:102230009C010E94461087E991E00E949A0F8091CC
:102240009C01D80115968C932EC0CD2819F15F3FC3
:1022500011F44F3FF9F0F62E61111CC08091650119
:102260002091660136E0821709F45AC090E0389F49
:10227000F001399FF00D1124E959FE4F7181571378
:1022800006C07081471303C07281711103C00196AB
:102290008770E9CFF62E662309F427C180919C014F
:1022A000816080939C01F12C20C1751308C0341308
:1022B00006C0611104C080919C01D801C3C04D8744
:1022C0005E878D859E856A8B0E9401106A898823AE
:1022D000E1F16623D1F120919C01822F82958F70CC
:1022E00090E0029774F080919701909198019887FF
:1022F0008F831986DB86CA862C87CE0107960E94BB
:102300009A0F86E0F801A7E9B1E001900D928A9555
:10231000E1F70E9454100E944610FF24F394E5C098
:102320004D875E878D859E850E945315292F2295A6
:102330002F7030E0223031050CF0CBC09F7009F0D7
:10234000C5C0805E883008F4D0C0C8010E949A0FD2
:10235000E4CFC816D90608F453C0F601E81BF90B00
:10236000CF01883C910508F450C0F12C7C2DD98A0E
:10237000C88A89890E940610E7E9F1E086E0DF015A
:102380001D928A95E9F70E944610AFC0751314C0DC
:10239000341312C0611110C080919C01F801858333
:1023A000C8010E949A0F86E0E7E9F1E0DF011D9283
:1023B0008A95E9F7FE2C99C04D875E878D859E85AD
:1023C0006A8B0E9401106A89882309F4BECF6623B4
:1023D00009F4BBCF20919C01822F82958F7090E0F1
:1023E00002970CF48ECF80919701909198019A8377
:1023F00089831B82DD82CC822E83CE0101967FCF22
:10240000809590958C0D9D1DACCFF62E662309F41A
:102410009CCF75132EC034132CC020919C0120FD3D
:102420001FC0822F82958F70D9F0D80115962C93FA
:1024300015978F3049F08F5F982F9295907F822F5C
:102440008F70892B15968C93C8010E949A0F86E095
:10245000F801A7E9B1E001900D928A95E1F793CFD9
:1024600086E0F801A7E9B1E001900D928A95E1F7C5
:102470003CC04D875E878D859E850E94011081112D
:1024800040CF80919C01816080939C01C8010E9493
:102490009A0F2BC0662309F458CF4D875E878D8530
:1024A0009E850E940110F82E882309F44ECF86E005
:1024B000F801A7E9B1E001900D928A95E1F787E96B
:1024C00091E00E944C0B0E9454105DCF811139CFD6
:1024D0000CC0243031050CF038CF9F7009F431CF97
:1024E000F8019581907F09F02CCF8F2D62960FB661
:1024F000F894DEBF0FBECDBFDF91CF911F910F913A
:10250000FF90EF90DF90CF9008951F93CF93DF93CC
:10251000CDB7DEB72C970FB6F894DEBF0FBECDBF98
:102520004F83588769877A878B879C87CE01079668
:102530000E94AF10882369F08F8198852A853B859A
:10254000232BF1F19F3F09F063C08F3F09F060C07A
:1025500037C086E0FE013796DE01119601900D929C
:102560008A95E1F76F817885EA85FB85309741F19F
:102570007F3F11F46F3F21F12091660130E0C901E6
:102580000196877099274091650150E0841795075F
:1025900009F447C069837A83FD83EC8396E0929FB8
:1025A000D001939FB00D1124A959BE4FFE01319661
:1025B00001900D929A95E1F7809366010E94251093
:1025C00016E080916501909166018917C1F1189F0D
:1025D000C001112489599E4F0E94AF10882379F1C0
:1025E000E09165011E9FF0011124E959FE4F4081E1
:1025F000518162817381848195810E94151080913F
:10260000650190E001968770992780936501D9CF85
:102610004F81588569857A858B859C850E94151028
:10262000CFCF0E94DB0F1092660110926501E7E99F
:10263000F1E086E0DF011D928A95E9F7C1CF2C9683
:102640000FB6F894DEBF0FBECDBFDF91CF911F91C3
:102650000895EF92FF920F931F93CF93DF938C0116
:10266000892B09F46CC0F12CEE24E394E801219647
:10267000F8018491843740F4843008F051C08130EF
:1026800081F0823019F15BC0853709F444C0A8F1AC
:102690009CE7980F903708F052C08F770E948B0C00
:1026A00041C00E5F1F4FFE01C49180E28C0F883045
:1026B00048F4C7708E2D01C0880FCA95EAF70E94B2
:1026C000B51514C08C2F0E94520B2DC00E5F1F4FEA
:1026D000FE01C49180E28C0F883058F4C7708E2DB3
:1026E00001C0880FCA95EAF70E94BB150E94DE154B
:1026F0001AC08C2F0E948B0C16C00E5F1F4FFE015C
:10270000C491CC2381F08FE99FE00197F1F700C0DD
:102710000000C150F6CF0E5F1F4FFE01F49003C0C2
:102720000E94520B8E018F2D882309F49FCFEFE971
:10273000FFE03197F1F700C000008150F5CFDF9145
:10274000CF911F910F91FF90EF90089508950C94F1
:10275000A6130E94A7136093BF017093C0018093DA
:10276000C1019093C2010C94C10F08950C94A91358
:102770000F931F930091BF011091C0012091C101DF
:102780003091C201602B712B822B932B1F910F91E3
:102790000C94A9130F931F930091BF011091C001D6
:1027A0002091C1013091C2016023712382239323C0
:1027B0001F910F910C94A9130F931F930091BF01C8
:1027C0001091C0012091C1013091C2016027712791
:1027D000822793271F910F910C94A91308950C94AD
:1027E000EE130E94EF136093BB017093BC018093C2
:1027F000BD019093BE010C94C10F60E070E0CB016D
:102800000C94F1130F931F9341E050E060E070E0EF
:102810008A019B0104C0000F111F221F331F8A95DC
:10282000D2F7C901B8011F910F910C94F1130F93C6
:102830001F9341E050E060E070E004C0440F551F7A
:10284000661F771F8A95D2F78091BB019091BC01DA
:10285000A091BD01B091BE018A019B01082B192BEB
:102860002A2B3B2BC901B8011F910F910C94F11336
:102870000F931F9341E050E060E070E004C0440F0C
:10288000551F661F771F8A95D2F740955095609522
:1028900070958091BB019091BC01A091BD01B09158
:1028A000BE018A019B01082319232A233B23C90166
:1028B000B8011F910F910C94F1130F931F9341E0F6
:1028C00050E060E070E004C0440F551F661F771FA2
:1028D0008A95D2F78091BB019091BC01A091BD0176
:1028E000B091BE018A019B01082719272A273B279F
:1028F000C901B8011F910F910C94F1130F931F930D
:102900000091BB011091BC012091BD013091BE012D
:10291000602B712B822B932B1F910F910C94F11331
:102920000F931F930091BB011091BC012091BD0139
:102930003091BE0160237123822393231F910F9155
:102940000C94F1130F931F930091BB011091BC01E4
:102950002091BD013091BE01602771278227932706
:102960001F910F910C94F1130895292F220F920FAC
:10297000990F890FA82FA695A695A695877051E067
:1029800001C0550F8A95EAF785E0A89FD001112470
:1029900020E030E070E0F901EA0FFB1FE356FE4F44
:1029A0004081CB01022E02C0969587950A94E2F7EA
:1029B00081709927819584278523842780832F5FC1
:1029C0003F4F2530310539F70895292F220F920FF7
:1029D000990F890F682F669566956695982F977061
:1029E00085E0689FB001112440E050E080E0FA01EA
:1029F000E60FF71FE356FE4F208130E0092E02C09C
:102A0000369527950A94E2F721703327042E01C0EA
:102A1000220F0A94EAF7822B4F5F5F4F4530510532
:102A200031F70895BF92CF92DF92EF92FF920F930A
:102A30001F93CF93DF938C01C090BF01D090C00152
:102A4000E090C101F090C2018091BB019091BC0166
:102A5000A091BD01B091BE01C82AD92AEA2AFB2A59
:102A6000CFE1D0E0D701C6010C2E04C0B695A795E2
:102A7000979587950A94D2F780FF07C0BC2EB801BE
:102A80008C2F0E945404019719F4219758F7B12C08
:102A90008B2DDF91CF911F910F91FF90EF90DF90E1
:102AA000CF90BF900895CF93DF93EC010E94121551
:102AB000BE010E945404DF91CF9108951F93CF93DC
:102AC000DF93EB0190916401992321F0CB010E94E7
:102AD000531513C0882349F0CB010E941215182FFB
:102AE000682FCE010E94B51404C0CB010E94E514EA
:102AF000182FBE01812F0E945404DF91CF911F91A6
:102B000008958091C3018595859585950895809157
:102B1000C301877008959091C301977081E009F413
:102B200080E008958091CF0108959091CF01892B85
:102B30008093CF01089580959091CF018923809350
:102B4000CF0108951092CF0108959091CE01892B65
:102B50008093CE01089580959091CE018923809332
:102B6000CE0108951092CE0108959091CD01892B48
:102B70008093CD01089580959091CD018923809314
:102B8000CD0108951092CD0108958091C40108955A
:102B900008950C94C8159091C401981721F0809362
:102BA000C4010C94C91508958091C401882329F0AB
:102BB0001092C40180E00C94C9150895E0910901B8
:102BC000F0910A018091CF018083E0910901F09199
:102BD0000A0190818091CE01892B8083E0910901C7
:102BE000F0910A0190818091CD01892B80838091A1
:102BF000C401882381F0E0910901F0910A019081DC
:102C0000892B80838091090190910A010E94C71647
:102C100081110E94D4158091090190910A010C94B0
:102C2000140A08950C94111698E0899F90011124BC
:102C3000262B2093C3010E9417148091C301859510
:102C4000859585950C9412161092C30180E00C9422
:102C500012162091C301809582238093C301982F7F
:102C6000977079F430E0482F082E000C550B24178C
:102C7000350739F08595859585950E9438140C9413
:102C80002416089580E090E00E949A2421E08D3E71
:102C90009E4F09F020E0822F089582E090E00C948E
:102CA000922483E090E00C94922484E090E00C94D1
:102CB0009224682F84E090E00C94A02486E090E0B9
:102CC0000C949224682F86E090E00C94A024AB0131
:102CD000BC018FE090E00C94B224AB01BC0183E115
:102CE00090E00C94B22460E070E0CB010C946D167F
:102CF00060E070E0CB010E9467160C9473166DEED5
:102D00007EEF80E090E00E94BE2460E082E090E0F0
:102D10000E94A02460E083E090E00E94A024109232
:102D2000BF011092C0011092C1011092C20160E077
:102D300084E090E00E94A02460E085E090E00E94A2
:102D4000A02460E086E090E00E94A0246FEF87E07E
:102D500090E00E94A02440E050E0BA0188E090E0BA
:102D60000E94B22460E08DE090E00E94A02440E048
:102D700050E0BA0188E190E00E94B22460E087E16F
:102D800090E00E94A0240C9478160C947F16FC010D
:102D9000329697E080E0915029F021912223D9F3D7
:102DA0008F5FF9CF08959C01FC0132969FEF80E080
:102DB0004191461789F09F3F19F4411101C0982FA6
:102DC0008F5F8630A9F79F3F39F0F901E90FF11DB8
:102DD00097FDFA95628308950895FC01329608964E
:102DE0002081261301C010823196E817F907C1F738
:102DF00008950C94D3160C94ED16029626E0FC016F
:102E000011922A95E9F7089508950C9404170E94E9
:102E100005178091F801843061F11092D10120E40E
:102E200088E190E00FB6F894A895809360000FBEFB
:102E30002093600080E00E94280280E00E94A102AE
:102E40000E94051783B7817F846083BF83B7816049
:102E500083BF7894889583B78E7F83BF0FB6F8942D
:102E6000A895809160008861809360001092600056
:102E70000FBE089508950895CF930E943A170E94B7
:102E8000D7070E943B17C0E08C2F0E94EC068111EF
:102E900004C0CF5FC830C1F701C081E0CF91089571
:102EA00008950C9450170E94DB0F0E94441C0E944E
:102EB000080A0E94A1020C9451171F920F920FB69C
:102EC0000F9211248F939F93AF93BF938091D10161
:102ED000811113C08091ED019091EE01A091EF015D
:102EE000B091F0014196A11DB11D8093ED01909329
:102EF000EE01A093EF01B093F001BF91AF919F91CC
:102F00008F910F900FBE0F901F90189582E084BD97
:102F100093E095BD9AEF97BD80936E0008952FB70B
:102F2000F8948091ED019091EE01A091EF01B091A4
:102F3000F0012FBF0895CF92DF92EF92FF920F938F
:102F40001F932FB7F8944091ED015091EE016091DD
:102F5000EF017091F0012FBF6A017B01EE24FF2485
:102F60008C0120E030E0C016D106E206F30610F432
:102F7000415051099A01281B390BC9011F910F912A
:102F8000FF90EF90DF90CF90089578941F920F926A
:102F90000FB60F9211248F939F93AF93BF9380919D
:102FA000ED019091EE01A091EF01B091F001019639
:102FB000A11DB11D8093ED019093EE01A093EF014F
:102FC000B093F001BF91AF919F918F910F900FBE81
:102FD0000F901F90189587E797E7909301088093CB
:102FE00000089AE088E10FB6F894A89580936000F5
:102FF0000FBE90936000FFCF0E944216811102C065
:103000000E94C5160E944D168093D0010E9455164D
:1030100090E09093F2018093F1010E945116682F85
:1030200070E080E090E00C94B6138091D50180FFB1
:103030000BC060910E0185E0689FB0011124759569
:103040006795759567952BC081FF09C060910E014A
:1030500085E0689FB00111247595679520C082FFB7
:1030600007C060910E0185E0689FB001112417C070
:103070009091D4019923D1F060910D01961788F7B2
:1030800020910E0185E0289F90011124929FA001BC
:10309000939F500D112470E0CA010E943C246038B7
:1030A000710540F46115710539F002C065E070E00A
:1030B000862F08958FE7089581E008958091D501C6
:1030C00080FF08C060910C0170E07595679575955B
:1030D000679521C081FF06C060910C0170E0759575
:1030E000679519C082FF04C060910C0170E010C0A8
:1030F0009091D4019923C1F060910B019617A0F72C
:1031000080910C01899FC001112470E00E943C2431
:103110006038710528F46115710521F0862F089536
:103120008FE7089581E0089561E070E0F4CF803F7B
:1031300021F40E941518819504C0813F29F40E9452
:1031400015188093D9010895823F21F40E94151823
:10315000819504C0833F29F40E9415188093D801FB
:103160000895893F19F40E945E1805C08A3F31F422
:103170000E945E1881958093DA0108958B3F21F4B7
:103180000E945E18819504C08C3F29F40E945E184D
:103190008093DB010895843F21F48091D701816001
:1031A00017C0853F21F48091D701826011C0863F0E
:1031B00021F48091D70184600BC0873F21F4809176
:1031C000D701886005C0883F31F48091D7018061C4
:1031D0008093D70108958D3F21F48091D5018160BE
:1031E0000BC08E3F21F48091D501826005C08F3FD6
:1031F00029F48091D50184608093D5010895803FA2
:1032000039F48091D90187FF6CC01092D90169C04F
:10321000813F29F48091D9011816BCF362C09091C6
:10322000D801823F29F497FF5CC01092D80159C0A1
:10323000833F19F41916CCF354C0893F41F48091AF
:10324000DA0118160CF04DC01092DA014AC08A3F1C
:1032500029F48091DA0187FF44C0F6CF8B3F39F41F
:103260008091DB0187FF3DC01092DB013AC08C3FAB
:1032700029F48091DB011816BCF333C0843F21F49C
:103280008091D7018E7F17C0853F21F48091D701AF
:103290008D7F11C0863F21F48091D7018B7F0BC0B9
:1032A000873F21F48091D701877F05C0883F31F4A3
:1032B0008091D7018F7E8093D70113C08D3F21F479
:1032C0008091D5018E7F0BC08E3F21F48091D50176
:1032D0008D7F05C08F3F29F48091D5018B7F80932E
:1032E000D5018091D80181110EC08091D901811141
:1032F0000AC08091DA01811106C08091DB01811141
:1033000002C01092D401089586ED91E00E941F0A38
:103310000E948F179093D3018093D20108951F9339
:10332000CF93DF938091D2019091D3010E949B179C
:10333000AC019091D401992321F020910F0130E04C
:1033400006C0209110018AE0289F900111244217A5
:10335000530708F46EC08091D801C091D901D09173
:10336000DA011091DB01811107C0C1115EC0D111DA
:103370005CC011115AC05DC09F3F19F09F5F9093D0
:10338000D401181624F40E9415188093D801809156
:10339000D80187FF05C00E94151881958093D80138
:1033A0001C1624F40E9415188093D9018091D9012C
:1033B00087FF05C00E94151881958093D90140911F
:1033C000D801442379F03091D901332359F025EB0A
:1033D0004203A00111245093D8013203C0011124EB
:1033E0009093D9011D1624F40E945E188093DA018F
:1033F0008091DA0187FF05C00E945E188195809355
:10340000DA01111624F40E945E188093DB0180918A
:10341000DB0187FF05C00E945E1881958093DB0168
:10342000DF91CF911F910C9484199F3F09F0A6CF93
:10343000AECFDF91CF911F910895E6EDF1E086E0E8
:10344000DF011D928A95E9F71092D4011092D501FF
:103450000895833081F128F4813059F08230D1F021
:103460000895853009F449C0B8F1863009F456C092
:10347000089580911001262F30E0280F311D2F3F35
:10348000310524F4680F6093100108958FEF809345
:103490001001089580910F01262F30E0280F311D73
:1034A0002F3F310524F4680F60930F0108958FEFCB
:1034B00080930F01089580910E01262F30E0280F90
:1034C000311D2F3F310524F4680F60930E010895DC
:1034D0008FEF80930E01089580910D01262F30E02B
:1034E000280F311D2F3F310524F4680F60930D0123
:1034F00008958FEF80930D01089580910C01262F80
:1035000030E0280F311D2F3F310524F4680F609300
:103510000C0108958FEF80930C01089580910B01A9
:10352000262F30E0280F311D2F3F310524F4680F7E
:1035300060930B0108958FEF80930B010895833002
:1035400011F128F4813049F0823091F008958530EE
:1035500081F120F18630C1F1089580911001681742
:1035600020F4861B80931001089510921001089595
:1035700080910F01681720F4861B80930F01089536
:1035800010920F01089580910E01681720F4861B98
:1035900080930E01089510920E01089580910D01FF
:1035A000681720F4861B80930D01089510920D0179
:1035B000089580910C01681720F4861B80930C01FC
:1035C000089510920C01089580910B01681720F462
:1035D000861B80930B01089510920B0108950F93A1
:1035E0001F938B3109F474C058F58B3009F4A1C0D6
:1035F00078F4863009F446C020F4853009F44CC0D4
:103600009FC0873009F456C0883009F492C098C032
:10361000803109F470C068F48E3009F091C0809157
:10362000D00182FB222720F991E0922790FB82F9BA
:1036300058C0863109F47DC0893109F47AC080C050
:103640008A32E9F060F4873209F475C028F48E31CB
:1036500008F476C08D515AC08932F1F071C08334BC
:1036600050F48A3308F051C0853309F464C08833BC
:1036700009F45FC065C0833409F45DC061C00E9475
:10368000C51657C08091D001817F8E7F8093D00175
:1036900081E08093DD0155C00E94DB0F0FEF13ED39
:1036A00020E3015010402040E1F700C000000E94DC
:1036B000EB173FC08091D001982F9095917090FBAF
:1036C00080F98093D001911134C0897F877F10C029
:1036D0008091D00181FB222720F991E0922790FB75
:1036E00081F98093D001992321F18091D0018160EB
:1036F0008093D0011EC08091D00183FB222720F946
:1037000091E0922790FB83F9ECCF895341E050E0A0
:1037100060E070E08A019B0104C0000F111F221FAE
:10372000331F8A95D2F7C901B8010E94B6130E94CF
:10373000DB0F81E006C061E070E080E090E0F5CF53
:1037400080E01F910F91089580E0089580E0089532
:103750008E518A3030F4E82FF0E0E65DFE4F808134
:10376000089580E00895CF93C82F8091DD018130C6
:1037700051F018F0823099F17DC00E94921582328A
:1037800009F07AC004C00E949215823261F48C2F35
:103790000E94A41B811104C08C2F0E94EF1A1DC02F
:1037A00081E090E01AC08C2F0E94A61B811114C0EA
:1037B000C43179F048F4CB3079F0C03109F060C001
:1037C00082E08093DD0108C0C93219F0C83321F0CE
:1037D00057C01092DD0154C081E0817053C0C932DE
:1037E00089F118F5C43171F1B0F4C73009F046C061
:1037F0008EE18093100182E380930F018AE0809331
:103800000E0184E180930D0188E080930C0188E231
:1038100080930B0133C082EE8C0F863078F58C2FAD
:103820000E94A81B8093DC0129C0CE34E9F020F46B
:10383000CB3421F56AE013C0C13579F0C235F1F41B
:1038400061E00DC08091DC01882319F01092DC0149
:1038500015C081E08093DD0115C061E006C0809154
:10386000DC010E94291A0AC06AE08091DC010E94F2
:103870009F1A04C01092DD0180E004C081E002C004
:1038800080E0ABCFCF9108950E944216811102C013
:103890000E94C5160E945E168093F301282F26957C
:1038A00030E02830310524F081708E608093F30180
:1038B0008091F30180FF02C0869501C080E00C94E6
:1038C00028022091F301822F8695482F50E047303F
:1038D000510544F48F5F982F990F822F8170892BA7
:1038E0008093F3018091F30181608093F3010E9442
:1038F00062168091F30186950C9428028091F30161
:10390000982F969591F09158990F8170892B8093FB
:10391000F3018E7F91E009F490E08091F30190FB38
:1039200080F98093F3010E9462168091F3018695DD
:103930000C9428028091F30180FD11C08160809376
:10394000F301813019F483E08093F3018091F30156
:103950000E9462168091F30186950C9428020895C6
:103960008091F30180FF08C08E7F8093F3010E9455
:10397000621680E00C94280208958091F30180FD86
:103980000C94B01C0C949A1C9091F301892F86958D
:103990008F5F8F779170883028F4880F892B809300
:1039A000F30102C09093F3018091F3018E7F91E0C7
:1039B00009F490E08091F30190FB80F98093F3018A
:1039C0000E9462168091F30186950C94280288303B
:1039D00008F087E0880F9091F3019170892B809314
:1039E000F3018E7F91E009F490E08091F30190FB68
:1039F00080F98093F3010E9462168091F30186950D
:103A00000C9428028091E60108950F931F93CF93A1
:103A1000DF9300D01F92CDB7DEB78C010E945F1FED
:103A2000823011F0843021F584E089831B830A837E
:103A300082E08093E9008FEF9091E800815095FD3E
:103A400006C095ED9A95F1F700008111F5CF8091B0
:103A5000E80085FF0DC040E050E063E070E0CE017B
:103A600001960E947C1F8091E8008E778093E80089
:103A70000F900F900F90DF91CF911F910F910895AC
:103A8000CF93DF9300D01F92CDB7DEB72091F8011E
:103A9000243031F523E02983805891099B838A8360
:103AA00082E08093E9008FEF9091E800815095FDCE
:103AB00006C095ED9A95F1F700008111F5CF809140
:103AC000E80085FF0DC040E050E063E070E0CE010B
:103AD00001960E947C1F8091E8008E778093E80019
:103AE0000F900F900F90DF91CF910895CF93DF93B8
:103AF000EC010E945F1F823011F08430F9F482E003
:103B00008093E9009FEF8091E800915085FD06C009
:103B100085ED8A95F1F700009111F5CF8091E800CD
:103B200085FF0CC040E050E066E070E0CE010E94EE
:103B30007C1F8091E8008E778093E800DF91CF9121
:103B40000895CF93DF93EC010E945F1F823011F044
:103B5000843039F581E08093E9008FEF9091E8009F
:103B6000815095FD06C095ED9A95F1F70000811101
:103B7000F5CF8091E80085FF14C040E050E068E098
:103B800070E0CE010E947C1F8091E8008E778093C8
:103B9000E80088E0FE01AEEDB1E001900D928A955B
:103BA000E1F7DF91CF9108958091F701811109C06C
:103BB0000E9411210E946E218091E2008460809316
:103BC000E20008951092F7010895089508950C9465
:103BD000531742E061EC81E00E948B2042E261ECED
:103BE00082E00C948B208091FA01833009F460C04C
:103BF00030F4813071F0823009F499C008958A3030
:103C000009F485C08B3009F46BC0893009F0A7C076
:103C100020C08091F901813A09F0A1C08091E800AB
:103C2000877F8093E8008091FD019091FE01892BB0
:103C300021F468E08EED91E003C060E080E090E068
:103C400070E00E94C71F8091E8008B778093E800A6
:103C500008958091F901813209F081C08091FD01C0
:103C60009091FE01029708F07AC08091E800877F6A
:103C70008093E8008091E80082FD05C08091F80102
:103C80008111F8CF6CC02091F3008091F20090E098
:103C9000922B029729F48091F1008B7F813021F4DF
:103CA0008091F1008093E6018091E8008B7753C00A
:103CB0008091F901813A09F052C08091FD01909103
:103CC000FE01892B09F04BC08091E800877F80932B
:103CD000E8008091E80080FFFCCF80911B0136C096
:103CE0008091F9018132D9F58091FD019091FE0119
:103CF000892BA9F58091E800877F8093E8000E94D6
:103D0000C0208091FB0180931B010C94DB0F8091FC
:103D1000F901813221F58091E800877F8093E800E6
:103D20000E94C0208091FC018093E701089580915A
:103D3000F901813AA1F48091E800877F8093E8003F
:103D40008091E80080FFFCCF8091E7018093F10033
:103D50008091E8008E778093E8000C94C02008954D
:103D600084B7877F84BF0FB6F894A89580916000D0
:103D7000886180936000109260000FBE80E880939D
:103D80006100109261000E94660A0E9411210E9447
:103D90006E218091E20084608093E20078940E941A
:103DA000FD230E946C0A81E191E00E94030A809148
:103DB000F801853069F40E9407178091F601882385
:103DC000B1F30E943C17882391F30E94661FEFCF46
:103DD0000E94760AECCF0C94ED1E292F3327233056
:103DE0003105C9F064F42130310581F0223031050C
:103DF00009F04CC08BE390E028E932E04BC021325F
:103E0000310521F12232310589F140C082E190E093
:103E100023ED32E03FC099278130910571F02CF4F9
:103E2000892BA1F5E4E9F2E00DC08230910541F063
:103E3000039761F5EAE6F2E005C0E4E8F2E002C0CB
:103E4000E0E7F2E0849190E09F0124C061157105E4
:103E500041F061307105D1F489E090E023EC32E06B
:103E600019C089E090E02AEA32E014C061157105BA
:103E700041F06130710551F485E890E025EE32E0C3
:103E800009C080E490E02AE633E004C080E090E0DE
:103E900020E030E0FA013183208308950895CF9324
:103EA000C82F0E944E1FC093E801CF9108958091C2
:103EB000F801843011F081E0089582E00895809146
:103EC000E801811102C00C94571F089580E189BD5B
:103ED00082E189BD09B400FEFDCF8091D8008F7DBD
:103EE0008093D8008091E00082608093E000809110
:103EF000E00081FDFCCF0895CF92DF92EF92FF9218
:103F00000F931F93CF93DF93EC018B016A010E9403
:103F1000DF20811133C0C114D10439F0F601808152
:103F20009181081B190BC80FD91FE12CF12C011529
:103F3000110519F18091E80085FD16C08091E80017
:103F40008E778093E800C114D10449F0F601808196
:103F50009181E80EF91EF182E08285E00FC00E9497
:103F6000DF20882321F30AC089918093F10001505A
:103F70001109FFEFEF1AFF0ADACF80E0DF91CF914E
:103F80001F910F91FF90EF90DF90CF9008952091B7
:103F9000FF01309100022617370748F061157105BF
:103FA00039F42091E8002E772093E80001C0B90190
:103FB00040E061157105A9F12091F801222309F46F
:103FC00043C0253009F442C02091E80023FD40C0E1
:103FD0002091E80022FD32C02091E80020FFE9CFC7
:103FE0004091F3002091F20030E0342BFC01CF012E
:103FF0006115710559F02830310540F481918093A5
:10400000F100615071092F5F3F4FF1CF41E028303F
:10401000310509F040E02091E8002E772093E80078
:10402000C8CF4111C9CF0AC08091F801882361F03F
:10403000853061F08091E80083FD0AC08091E8003E
:1040400082FFF2CF80E0089582E0089583E0089532
:1040500081E008952091FF01309100022617370773
:1040600048F06115710539F42091E8002E7720930E
:10407000E80001C0B901FC0120E06115710591F172
:104080008091F801882309F440C0853009F43FC0CD
:104090008091E80083FD3DC08091E80082FD2FC043
:1040A0008091E80080FFE9CF2091F3008091F20039
:1040B00090E0922B6115710559F08830910540F41C
:1040C00024912093F1003196615071090196F2CF4D
:1040D00021E0089709F020E08091E8008E77809336
:1040E000E800CBCF2111CCCF0AC08091F801882302
:1040F00061F0853061F08091E80083FD0AC0809115
:10410000E80082FFF2CF80E0089582E0089583E026
:10411000089581E00895982F973058F59093E9001D
:10412000981739F07091EC002091ED005091F0005B
:1041300003C0242F762F50E021FF19C03091EB00EF
:104140003E7F3093EB003091ED003D7F3093ED00EA
:104150003091EB0031603093EB007093EC002093D2
:10416000ED005093F0002091EE0027FF07C09F5F05
:10417000D3CF8F708093E90081E0089580E00895A7
:104180008091F90187FF11C08091E80082FD05C090
:104190008091F8018111F8CF11C08091E8008B77F0
:1041A0000BC08091F801882349F08091E80080FFDE
:1041B000F8CF8091E8008E778093E80008952091F1
:1041C000E4003091E50095E64091EC00842F817089
:1041D00040FF22C08091E80080FD1CC08091F80162
:1041E000882391F0853091F08091EB0085FD10C01F
:1041F0004091E4005091E5004217530729F39A01DA
:10420000915011F784E0089582E0089583E00895C5
:1042100081E0089580E008954091E80042FFDECFFC
:1042200008950E947F210E948721E0EEF0E08081C6
:1042300081608083E8EDF0E080818F77808319BC16
:10424000A7EDB0E08C918E7F8C9380818F7E8083F0
:104250001092F70108950F931F93CF93DF930E945D
:104260007F210E948721C8EDD0E088818F778883E5
:1042700088818068888388818F7D888319BC1092AB
:10428000F8011092F4011092F6011092F50100EE7F
:1042900010E0F80180818B7F808388818160888332
:1042A00042E060E080E00E948B20E1EEF0E080815F
:1042B0008E7F8083E2EEF0E0808181608083808168
:1042C00088608083F80180818E7F8083888180610F
:1042D0008883DF91CF911F910F910895E8EDF0E071
:1042E00080818F7E8083E7EDF0E080818160808334
:1042F00084E082BF81E08093F7010C942B21E8EDEC
:10430000F0E080818E7F80831092E2000895109209
:10431000DA001092E10008951F920F920FB60F92EB
:1043200011242F933F934F935F936F937F938F93BA
:104330009F93AF93BF93EF93FF938091E10082FF30
:104340000BC08091E20082FF07C08091E1008B7F6B
:104350008093E1000E94FC238091DA0080FF1FC05F
:104360008091D80080FF1BC08091DA008E7F8093FF
:10437000DA008091D90080FF0DC080E189BD82E123
:1043800089BD09B400FEFDCF81E08093F8010E9451
:10439000D41D05C019BC1092F8010E94E21D809145
:1043A000E10080FF19C08091E20080FF15C080917C
:1043B000E2008E7F8093E2008091E2008061809332
:1043C000E2008091D80080628093D80019BC85E01B
:1043D0008093F8010E94E61D8091E10084FF30C0C7
:1043E0008091E20084FF2CC080E189BD82E189BD1B
:1043F00009B400FEFDCF8091D8008F7D8093D80056
:104400008091E1008F7E8093E1008091E2008F7EB9
:104410008093E2008091E20081608093E2008091CD
:10442000F401882311F084E007C08091E30087FD48
:1044300002C081E001C083E08093F8010E94E71D83
:104440008091E10083FF29C08091E20083FF25C0B5
:104450008091E100877F8093E10082E08093F80102
:104460001092F4018091E1008E7F8093E1008091B1
:10447000E2008E7F8093E2008091E2008061809371
:10448000E20042E060E080E00E948B208091F0003A
:1044900088608093F0000E94E51DFF91EF91BF912D
:1044A000AF919F918F917F916F915F914F913F91CC
:1044B0002F910F900FBE0F901F9018951F920F9283
:1044C0000FB60F9211242F933F934F935F936F93E7
:1044D0007F938F939F93AF93BF93CF93DF93EF938C
:1044E000FF93C091E900CF708091EC00D82FD1707C
:1044F00080FDD0E81092E9008091F000877F8093E2
:10450000F00078940E94A2221092E9008091F000BD
:1045100088608093F000CD2BCF70C093E900FF91AD
:10452000EF91DF91CF91BF91AF919F918F917F914B
:104530006F915F914F913F912F910F900FBE0F9010
:104540001F9018951F93CF93DF93CDB7DEB7AA972F
:104550000FB6F894DEBF0FBECDBFE9EFF1E088E003
:104560008E0F9091F10091938E13FBCF0E94F31D5B
:104570008091E80083FF28C18091F9019091FA01B0
:10458000492F50E04A30510508F01EC1FA01E556A6
:10459000FF4F0C947224803821F0823809F014C146
:1045A00008C08091F5019091F601992389F082600D
:1045B0000FC08091FD018F70873008F005C1809396
:1045C000E9008091EB0085FB882780F91092E900D3
:1045D0009091E800977F9093E8008093F10010920B
:1045E000F100D0C0282F2D7F09F0EEC0882319F0EC
:1045F000823061F0E9C08091FB01813009F0E4C0B4
:10460000933009F080E08093F6012EC08091FB0189
:1046100081112AC08091FD018F702FEF280F263065
:1046200008F0D2C08093E9002091EB0020FF1CC06D
:10463000933021F48091EB00806214C09091EB00E4
:1046400090619093EB0021E030E0A90102C0440F9B
:10465000551F8A95E2F74093EA001092EA00809194
:10466000EB0088608093EB001092E9008091E800F5
:10467000877F8093E8000E94C020A6C08111A4C05B
:104680001091FB011F778091E3008078812B80934C
:10469000E3008091E800877F8093E8000E94C020BB
:1046A0008091E80080FFFCCF8091E30080688093D8
:1046B000E300111102C082E001C083E08093F801A1
:1046C00083C08058823008F07FC08091FB019091B8
:1046D000FC018C3D53E0950779F583E08A838AE2FB
:1046E00089834FB7F894DE01139620E03EE051E253
:1046F000E32FF0E050935700E49120FF03C0E295D0
:10470000EF703F5FEF708E2F90E0EA3010F0C796A9
:1047100001C0C0968D939D932F5F243149F74FBF01
:104720008091E800877F8093E8006AE270E0CE0124
:1047300001960E94C71F15C06091FD017091FE0196
:10474000AE014F5F5F4F0E94EB1EBC01892BE1F170
:104750009091E800977F9093E80089819A810E9468
:104760002A208091E8008B778093E8002DC0803864
:1047700059F58091E800877F8093E8008091F401EB
:104780008093F1008091E8008E7773CF81111CC077
:104790009091FB019230C0F48091E800877F809374
:1047A000E8009093F4010E94C0208091F4018111EF
:1047B00006C08091E30087FD02C081E001C084E073
:1047C0008093F8010E94E91D8091E80083FF0AC0F0
:1047D0008091E800877F8093E8008091EB00806201
:1047E0008093EB00AA960FB6F894DEBF0FBECDBF44
:1047F000DF91CF911F9108950895CF938091F80193
:104800008823A1F0C091E900CF709091EC00892F2E
:10481000817090FD80E8C82B1092E9008091E8003B
:1048200083FD0E94A222CF70C093E900CF9108952A
:10483000DB018F939F930E948724BF91AF91A29F2A
:10484000800D911DA39F900DB29F900D112408958E
:10485000AA1BBB1B51E107C0AA1FBB1FA617B707A6
:1048600010F0A61BB70B881F991F5A95A9F78095C2
:104870009095BC01CD01089597FB072E16F4009486
:1048800007D077FD09D00E94282407FC05D03EF40C
:10489000909581959F4F0895709561957F4F0895EC
:1048A000A1E21A2EAA1BBB1BFD010DC0AA1FBB1F34
:1048B000EE1FFF1FA217B307E407F50720F0A21BA6
:1048C000B30BE40BF50B661F771F881F991F1A9413
:1048D00069F760957095809590959B01AC01BD013D
:1048E000CF010895EE0FFF1F0590F491E02D09947C
:1048F000A29FB001B39FC001A39F700D811D112421
:10490000911DB29F700D811D1124911D08950E946B
:104910007824A59F900DB49F900DA49F800D911DAC
:1049200011240895F999FECF92BD81BDF89A992777
:1049300080B50895A8E1B0E042E050E00C94C624B0
:10494000262FF999FECF92BD81BDF89A019700B448
:10495000021639F01FBA20BD0FB6F894FA9AF99AE8
:104960000FBE08950396272F0E94A1240E94A02421
:10497000252F0E94A124242F0C94A1240196272FD7
:104980000E94A1240C94A024DC01CB01FC01F99924
:10499000FECF06C0F2BDE1BDF89A319600B40D928B
:0C49A00041505040B8F70895F894FFCF44
:1049AC00014C01014D01044E01C5012808140A32C5
:1049BC001E021DA11D761D401D051D01F6F731338C
:1049CC0032369497C6340000000001020304050639
:0449DC0007080900BF
:00000001FF
